:100000003DED00F043ED00F05DED00F064ED00F03B
:10001000CEB608EF00F070ED00F0050E056E16EF9D
:1000200000F0052E16EF00F03CEF00F00A0E046E13
:10003000000E036E0401000EFB6F000EFA6F034406
:100040002AEC00F0C06EDEEDFFF0042E35EF00F07C
:1000500039EF00F0F926810C420C240C180C000C2E
:10006000180C240C420C810C000C032A1AEF00F02F
:10007000120011EF00F01200C06B0001600EAD6FB6
:10008000020EB16F12000401D36BC387286BCB97AC
:100090000401CE6B006BC68701870401CF6B086B30
:1000A000C78909890401D36B286BCB852985040195
:1000B000D06BC06B106BC86B120002010C0E3F6F4F
:1000C00002012A0E406F1200D68A030168816C81FA
:1000D000D690B490A480D690B890A880D68E120006
:1000E0000201030E3E6F63910301D690AF909F8093
:0400F000D68C120098
:020000040001F9
:10FF720000EF00F0B8A0BFEFFFF0B8901000AFA004
:10FF8200C6EFFFF0AF9008EF00F01000B4A0D0EF82
:10FF9200FFF0B490C06BDEEDFFF0DEEDFFF0B49049
:10FFA2001000FA0E016EF90E006E0000002ED6EF60
:10FFB200FFF0012ED4EFFFF01200020E026EFA0ED5
:10FFC200016EF90E006E0000002EE4EFFFF0012E2C
:10FFD200E2EFFFF0022EE0EFFFF01200020E026EDF
:10FFE200FA0E016EF90E006E0000002EF5EFFFF022
:0EFFF200012EF3EFFFF0022EE0EFFFF0120001
:020000040030CA
:10000000EC0D27C79FFFFFFFFFFFFFFFFFFFFFFF75
:10001000FFFFFFFFFFFFFFFFFFFFFFFFFFFFFFFFF0
:03002000FFFFFFE0
:00000001FF
