:100000002FED00F035ED00F06FECFFF076ECFFF037
:100010007DECFFF084ECFFF08BECFFF092ECFFF056
:1000200099ECFFF0A0ECFFF0ACECFFF0B8ECFFF0C7
:10003000C4ECFFF0D0ECFFF0DCECFFF0E8ECFFF0FC
:10004000F4ECFFF00000C397E8ECFFF0E8ECFFF001
:10005000C387E8ECFFF0E8ECFFF023EF00F00001CD
:10006000600EAD6F020EB16F12000401D36BC38737
:10007000286BCB970401CE6B006BC68701871200FB
:020000040001F9
:10FEDA0000EF00F0010E006E0000002E71EFFFF03F
:10FEEA001200050E006E0000002E78EFFFF01200DF
:10FEFA000B0E006E0000002E7FEFFFF01200180EAE
:10FF0A00006E0000002E86EFFFF01200310E006E28
:10FF1A000000002E8DEFFFF012003D0E006E000073
:10FF2A00002E94EFFFF012007C0E006E0000002EEF
:10FF3A009BEFFFF01200010E016EF90E006E000039
:10FF4A00002EA4EFFFF0012EA2EFFFF01200050E23
:10FF5A00016EF90E006E0000002EB0EFFFF0012EC8
:10FF6A00AEEFFFF012000A0E016EF90E006E0000ED
:10FF7A00002EBCEFFFF0012EBAEFFFF01200190EAF
:10FF8A00016EF90E006E0000002EC8EFFFF0012E80
:10FF9A00C6EFFFF01200320E016EF90E006E00007D
:10FFAA00002ED4EFFFF0012ED2EFFFF01200640E04
:10FFBA00016EF90E006E0000002EE0EFFFF0012E38
:10FFCA00DEEFFFF01200C80E016EF90E006E00009F
:10FFDA00002EECEFFFF0012EEAEFFFF01200FA0E0E
:10FFEA00016EF90E006E0000002EF8EFFFF0012EF0
:06FFFA00F6EFFFF012001B
:020000040030CA
:10000000EC0D27C79FFFFFFFFFFFFFFFFFFFFFFF75
:10001000FFFFFFFFFFFFFFFFFFFFFFFFFFFFFFFFF0
:03002000FFFFFFE0
:00000001FF
